{
  "_format": "hh-sol-artifact-1",
  "contractName": "FlashLoanArbitrage",
  "sourceName": "contracts/FlashLoanArbitrage.sol",
  "abi": [
    {
      "inputs": [
        {
          "internalType": "address",
          "name": "_addressProvider",
          "type": "address"
        }
      ],
      "stateMutability": "nonpayable",
      "type": "constructor"
    },
    {
      "inputs": [],
      "name": "ADDRESSES_PROVIDER",
      "outputs": [
        {
          "internalType": "contract IPoolAddressesProvider",
          "name": "",
          "type": "address"
        }
      ],
      "stateMutability": "view",
      "type": "function"
    },
    {
      "inputs": [],
      "name": "POOL",
      "outputs": [
        {
          "internalType": "contract IPool",
          "name": "",
          "type": "address"
        }
      ],
      "stateMutability": "view",
      "type": "function"
    },
    {
      "inputs": [],
      "name": "allowanceDAI",
      "outputs": [
        {
          "internalType": "uint256",
          "name": "",
          "type": "uint256"
        }
      ],
      "stateMutability": "view",
      "type": "function"
    },
    {
      "inputs": [],
      "name": "allowanceUSDC",
      "outputs": [
        {
          "internalType": "uint256",
          "name": "",
          "type": "uint256"
        }
      ],
      "stateMutability": "view",
      "type": "function"
    },
    {
      "inputs": [
        {
          "internalType": "uint256",
          "name": "_amount",
          "type": "uint256"
        }
      ],
      "name": "approveDAI",
      "outputs": [
        {
          "internalType": "bool",
          "name": "",
          "type": "bool"
        }
      ],
      "stateMutability": "nonpayable",
      "type": "function"
    },
    {
      "inputs": [
        {
          "internalType": "uint256",
          "name": "_amount",
          "type": "uint256"
        }
      ],
      "name": "approveUSDC",
      "outputs": [
        {
          "internalType": "bool",
          "name": "",
          "type": "bool"
        }
      ],
      "stateMutability": "nonpayable",
      "type": "function"
    },
    {
      "inputs": [
        {
          "internalType": "address",
          "name": "asset",
          "type": "address"
        },
        {
          "internalType": "uint256",
          "name": "amount",
          "type": "uint256"
        },
        {
          "internalType": "uint256",
          "name": "premium",
          "type": "uint256"
        },
        {
          "internalType": "address",
          "name": "initiator",
          "type": "address"
        },
        {
          "internalType": "bytes",
          "name": "params",
          "type": "bytes"
        }
      ],
      "name": "executeOperation",
      "outputs": [
        {
          "internalType": "bool",
          "name": "",
          "type": "bool"
        }
      ],
      "stateMutability": "nonpayable",
      "type": "function"
    },
    {
      "inputs": [
        {
          "internalType": "address",
          "name": "_tokenAddress",
          "type": "address"
        }
      ],
      "name": "getBalance",
      "outputs": [
        {
          "internalType": "uint256",
          "name": "",
          "type": "uint256"
        }
      ],
      "stateMutability": "view",
      "type": "function"
    },
    {
      "inputs": [
        {
          "internalType": "address",
          "name": "_token",
          "type": "address"
        },
        {
          "internalType": "uint256",
          "name": "_amount",
          "type": "uint256"
        }
      ],
      "name": "requestFlashLoan",
      "outputs": [],
      "stateMutability": "nonpayable",
      "type": "function"
    },
    {
      "inputs": [
        {
          "internalType": "address",
          "name": "_tokenAddress",
          "type": "address"
        }
      ],
      "name": "withdraw",
      "outputs": [],
      "stateMutability": "nonpayable",
      "type": "function"
    },
    {
      "stateMutability": "payable",
      "type": "receive"
    }
  ],
  "bytecode": "0x6101006040527368194a729c2450ad26072b3d33adacbcef39d57473ffffffffffffffffffffffffffffffffffffffff1660c09073ffffffffffffffffffffffffffffffffffffffff1681525073da9d4f9b69ac6c22e444ed9af0cfc043b7a7f53f73ffffffffffffffffffffffffffffffffffffffff1660e09073ffffffffffffffffffffffffffffffffffffffff16815250731680c1fda6014bb29a33a7784f89a897f1b2d7d3600160006101000a81548173ffffffffffffffffffffffffffffffffffffffff021916908373ffffffffffffffffffffffffffffffffffffffff160217905550348015620000f557600080fd5b50604051620017e5380380620017e583398181016040528101906200011b919062000390565b808073ffffffffffffffffffffffffffffffffffffffff1660808173ffffffffffffffffffffffffffffffffffffffff16815250508073ffffffffffffffffffffffffffffffffffffffff1663026b1d5f6040518163ffffffff1660e01b8152600401602060405180830381865afa1580156200019c573d6000803e3d6000fd5b505050506040513d601f19601f82011682018060405250810190620001c2919062000390565b73ffffffffffffffffffffffffffffffffffffffff1660a08173ffffffffffffffffffffffffffffffffffffffff168152505050336000806101000a81548173ffffffffffffffffffffffffffffffffffffffff021916908373ffffffffffffffffffffffffffffffffffffffff16021790555060c051600260006101000a81548173ffffffffffffffffffffffffffffffffffffffff021916908373ffffffffffffffffffffffffffffffffffffffff16021790555060e051600360006101000a81548173ffffffffffffffffffffffffffffffffffffffff021916908373ffffffffffffffffffffffffffffffffffffffff160217905550600160009054906101000a900473ffffffffffffffffffffffffffffffffffffffff16600460006101000a81548173ffffffffffffffffffffffffffffffffffffffff021916908373ffffffffffffffffffffffffffffffffffffffff16021790555050620003c2565b600080fd5b600073ffffffffffffffffffffffffffffffffffffffff82169050919050565b600062000358826200032b565b9050919050565b6200036a816200034b565b81146200037657600080fd5b50565b6000815190506200038a816200035f565b92915050565b600060208284031215620003a957620003a862000326565b5b6000620003b98482850162000379565b91505092915050565b60805160a05160c05160e0516113e1620004046000396000505060005050600081816105a4015281816109770152610b520152600061029501526113e16000f3fe6080604052600436106100955760003560e01c80637535d246116100595780637535d2461461019a5780637970f920146101c55780639787ea13146101f0578063d54ba9541461022d578063f8b2cb4f146102565761009c565b80630542975c146100a15780631b11d0ff146100cc578063294028ce1461010957806351cff8d9146101345780635f80a9cf1461015d5761009c565b3661009c57005b600080fd5b3480156100ad57600080fd5b506100b6610293565b6040516100c39190610cee565b60405180910390f35b3480156100d857600080fd5b506100f360048036038101906100ee9190610dec565b6102b7565b6040516101009190610ea1565b60405180910390f35b34801561011557600080fd5b5061011e610634565b60405161012b9190610ecb565b60405180910390f35b34801561014057600080fd5b5061015b60048036038101906101569190610ee6565b6106fb565b005b34801561016957600080fd5b50610184600480360381019061017f9190610f13565b6108aa565b6040516101919190610ea1565b60405180910390f35b3480156101a657600080fd5b506101af610975565b6040516101bc9190610f61565b60405180910390f35b3480156101d157600080fd5b506101da610999565b6040516101e79190610ecb565b60405180910390f35b3480156101fc57600080fd5b5061021760048036038101906102129190610f13565b610a60565b6040516102249190610ea1565b60405180910390f35b34801561023957600080fd5b50610254600480360381019061024f9190610f7c565b610b2b565b005b34801561026257600080fd5b5061027d60048036038101906102789190610ee6565b610bec565b60405161028a9190610ecb565b60405180910390f35b7f000000000000000000000000000000000000000000000000000000000000000081565b6000600460009054906101000a900473ffffffffffffffffffffffffffffffffffffffff1673ffffffffffffffffffffffffffffffffffffffff1663f688bcfb633b9aca006040518263ffffffff1660e01b81526004016103189190610ff7565b600060405180830381600087803b15801561033257600080fd5b505af1158015610346573d6000803e3d6000fd5b50505050600460009054906101000a900473ffffffffffffffffffffffffffffffffffffffff1673ffffffffffffffffffffffffffffffffffffffff166305abf9046040518163ffffffff1660e01b8152600401600060405180830381600087803b1580156103b457600080fd5b505af11580156103c8573d6000803e3d6000fd5b50505050600460009054906101000a900473ffffffffffffffffffffffffffffffffffffffff1673ffffffffffffffffffffffffffffffffffffffff1663365833e1600260009054906101000a900473ffffffffffffffffffffffffffffffffffffffff1673ffffffffffffffffffffffffffffffffffffffff166370a08231306040518263ffffffff1660e01b81526004016104659190611021565b602060405180830381865afa158015610482573d6000803e3d6000fd5b505050506040513d601f19601f820116820180604052508101906104a69190611051565b6040518263ffffffff1660e01b81526004016104c29190610ecb565b600060405180830381600087803b1580156104dc57600080fd5b505af11580156104f0573d6000803e3d6000fd5b50505050600460009054906101000a900473ffffffffffffffffffffffffffffffffffffffff1673ffffffffffffffffffffffffffffffffffffffff1663156029916040518163ffffffff1660e01b8152600401600060405180830381600087803b15801561055e57600080fd5b505af1158015610572573d6000803e3d6000fd5b505050506000858761058491906110ad565b90508773ffffffffffffffffffffffffffffffffffffffff1663095ea7b37f0000000000000000000000000000000000000000000000000000000000000000836040518363ffffffff1660e01b81526004016105e1929190611103565b6020604051808303816000875af1158015610600573d6000803e3d6000fd5b505050506040513d601f19601f820116820180604052508101906106249190611158565b5060019150509695505050505050565b6000600260009054906101000a900473ffffffffffffffffffffffffffffffffffffffff1673ffffffffffffffffffffffffffffffffffffffff1663dd62ed3e30600160009054906101000a900473ffffffffffffffffffffffffffffffffffffffff166040518363ffffffff1660e01b81526004016106b5929190611185565b602060405180830381865afa1580156106d2573d6000803e3d6000fd5b505050506040513d601f19601f820116820180604052508101906106f69190611051565b905090565b60008054906101000a900473ffffffffffffffffffffffffffffffffffffffff1673ffffffffffffffffffffffffffffffffffffffff163373ffffffffffffffffffffffffffffffffffffffff1614610789576040517f08c379a000000000000000000000000000000000000000000000000000000000815260040161078090611231565b60405180910390fd5b60008190508073ffffffffffffffffffffffffffffffffffffffff1663a9059cbb60008054906101000a900473ffffffffffffffffffffffffffffffffffffffff168373ffffffffffffffffffffffffffffffffffffffff166370a08231306040518263ffffffff1660e01b81526004016108049190611021565b602060405180830381865afa158015610821573d6000803e3d6000fd5b505050506040513d601f19601f820116820180604052508101906108459190611051565b6040518363ffffffff1660e01b8152600401610862929190611272565b6020604051808303816000875af1158015610881573d6000803e3d6000fd5b505050506040513d601f19601f820116820180604052508101906108a59190611158565b505050565b6000600360009054906101000a900473ffffffffffffffffffffffffffffffffffffffff1673ffffffffffffffffffffffffffffffffffffffff1663095ea7b3600160009054906101000a900473ffffffffffffffffffffffffffffffffffffffff16846040518363ffffffff1660e01b815260040161092b929190611103565b6020604051808303816000875af115801561094a573d6000803e3d6000fd5b505050506040513d601f19601f8201168201806040525081019061096e9190611158565b9050919050565b7f000000000000000000000000000000000000000000000000000000000000000081565b6000600360009054906101000a900473ffffffffffffffffffffffffffffffffffffffff1673ffffffffffffffffffffffffffffffffffffffff1663dd62ed3e30600160009054906101000a900473ffffffffffffffffffffffffffffffffffffffff166040518363ffffffff1660e01b8152600401610a1a929190611185565b602060405180830381865afa158015610a37573d6000803e3d6000fd5b505050506040513d601f19601f82011682018060405250810190610a5b9190611051565b905090565b6000600260009054906101000a900473ffffffffffffffffffffffffffffffffffffffff1673ffffffffffffffffffffffffffffffffffffffff1663095ea7b3600160009054906101000a900473ffffffffffffffffffffffffffffffffffffffff16846040518363ffffffff1660e01b8152600401610ae1929190611103565b6020604051808303816000875af1158015610b00573d6000803e3d6000fd5b505050506040513d601f19601f82011682018060405250810190610b249190611158565b9050919050565b600030905060008390506000839050600060405180602001604052806000815250905060007f000000000000000000000000000000000000000000000000000000000000000073ffffffffffffffffffffffffffffffffffffffff166342b0b77c86868686866040518663ffffffff1660e01b8152600401610bb1959493929190611351565b600060405180830381600087803b158015610bcb57600080fd5b505af1158015610bdf573d6000803e3d6000fd5b5050505050505050505050565b60008173ffffffffffffffffffffffffffffffffffffffff166370a08231306040518263ffffffff1660e01b8152600401610c279190611021565b602060405180830381865afa158015610c44573d6000803e3d6000fd5b505050506040513d601f19601f82011682018060405250810190610c689190611051565b9050919050565b600073ffffffffffffffffffffffffffffffffffffffff82169050919050565b6000819050919050565b6000610cb4610caf610caa84610c6f565b610c8f565b610c6f565b9050919050565b6000610cc682610c99565b9050919050565b6000610cd882610cbb565b9050919050565b610ce881610ccd565b82525050565b6000602082019050610d036000830184610cdf565b92915050565b600080fd5b600080fd5b6000610d1e82610c6f565b9050919050565b610d2e81610d13565b8114610d3957600080fd5b50565b600081359050610d4b81610d25565b92915050565b6000819050919050565b610d6481610d51565b8114610d6f57600080fd5b50565b600081359050610d8181610d5b565b92915050565b600080fd5b600080fd5b600080fd5b60008083601f840112610dac57610dab610d87565b5b8235905067ffffffffffffffff811115610dc957610dc8610d8c565b5b602083019150836001820283011115610de557610de4610d91565b5b9250929050565b60008060008060008060a08789031215610e0957610e08610d09565b5b6000610e1789828a01610d3c565b9650506020610e2889828a01610d72565b9550506040610e3989828a01610d72565b9450506060610e4a89828a01610d3c565b935050608087013567ffffffffffffffff811115610e6b57610e6a610d0e565b5b610e7789828a01610d96565b92509250509295509295509295565b60008115159050919050565b610e9b81610e86565b82525050565b6000602082019050610eb66000830184610e92565b92915050565b610ec581610d51565b82525050565b6000602082019050610ee06000830184610ebc565b92915050565b600060208284031215610efc57610efb610d09565b5b6000610f0a84828501610d3c565b91505092915050565b600060208284031215610f2957610f28610d09565b5b6000610f3784828501610d72565b91505092915050565b6000610f4b82610cbb565b9050919050565b610f5b81610f40565b82525050565b6000602082019050610f766000830184610f52565b92915050565b60008060408385031215610f9357610f92610d09565b5b6000610fa185828601610d3c565b9250506020610fb285828601610d72565b9150509250929050565b6000819050919050565b6000610fe1610fdc610fd784610fbc565b610c8f565b610d51565b9050919050565b610ff181610fc6565b82525050565b600060208201905061100c6000830184610fe8565b92915050565b61101b81610d13565b82525050565b60006020820190506110366000830184611012565b92915050565b60008151905061104b81610d5b565b92915050565b60006020828403121561106757611066610d09565b5b60006110758482850161103c565b91505092915050565b7f4e487b7100000000000000000000000000000000000000000000000000000000600052601160045260246000fd5b60006110b882610d51565b91506110c383610d51565b9250827fffffffffffffffffffffffffffffffffffffffffffffffffffffffffffffffff038211156110f8576110f761107e565b5b828201905092915050565b60006040820190506111186000830185611012565b6111256020830184610ebc565b9392505050565b61113581610e86565b811461114057600080fd5b50565b6000815190506111528161112c565b92915050565b60006020828403121561116e5761116d610d09565b5b600061117c84828501611143565b91505092915050565b600060408201905061119a6000830185611012565b6111a76020830184611012565b9392505050565b600082825260208201905092915050565b7f4f6e6c792074686520636f6e7472616374206f776e65722063616e2063616c6c60008201527f20746869732066756e6374696f6e000000000000000000000000000000000000602082015250565b600061121b602e836111ae565b9150611226826111bf565b604082019050919050565b6000602082019050818103600083015261124a8161120e565b9050919050565b600061125c82610cbb565b9050919050565b61126c81611251565b82525050565b60006040820190506112876000830185611263565b6112946020830184610ebc565b9392505050565b600081519050919050565b600082825260208201905092915050565b60005b838110156112d55780820151818401526020810190506112ba565b838111156112e4576000848401525b50505050565b6000601f19601f8301169050919050565b60006113068261129b565b61131081856112a6565b93506113208185602086016112b7565b611329816112ea565b840191505092915050565b600061ffff82169050919050565b61134b81611334565b82525050565b600060a0820190506113666000830188611012565b6113736020830187611012565b6113806040830186610ebc565b818103606083015261139281856112fb565b90506113a16080830184611342565b969550505050505056fea2646970667358221220f2ec73672aaab277d8ec765d74dc70175c9d6bec2f6f007cc5928794f3e9f62464736f6c634300080a0033",
  "linkReferences": {},
  "deployedLinkReferences": {}
}