{
  "_format": "hh-sol-artifact-1",
  "contractName": "Dex",
  "sourceName": "contracts/dex.sol",
  "abi": [
    {
      "inputs": [],
      "stateMutability": "nonpayable",
      "type": "constructor"
    },
    {
      "inputs": [],
      "name": "buyDAI",
      "outputs": [],
      "stateMutability": "nonpayable",
      "type": "function"
    },
    {
      "inputs": [
        {
          "internalType": "address",
          "name": "",
          "type": "address"
        }
      ],
      "name": "daiBalances",
      "outputs": [
        {
          "internalType": "uint256",
          "name": "",
          "type": "uint256"
        }
      ],
      "stateMutability": "view",
      "type": "function"
    },
    {
      "inputs": [
        {
          "internalType": "uint256",
          "name": "_amount",
          "type": "uint256"
        }
      ],
      "name": "depositDAI",
      "outputs": [],
      "stateMutability": "nonpayable",
      "type": "function"
    },
    {
      "inputs": [
        {
          "internalType": "uint256",
          "name": "_amount",
          "type": "uint256"
        }
      ],
      "name": "depositUSDC",
      "outputs": [],
      "stateMutability": "nonpayable",
      "type": "function"
    },
    {
      "inputs": [
        {
          "internalType": "address",
          "name": "_tokenAddress",
          "type": "address"
        }
      ],
      "name": "getBalance",
      "outputs": [
        {
          "internalType": "uint256",
          "name": "",
          "type": "uint256"
        }
      ],
      "stateMutability": "view",
      "type": "function"
    },
    {
      "inputs": [],
      "name": "owner",
      "outputs": [
        {
          "internalType": "address payable",
          "name": "",
          "type": "address"
        }
      ],
      "stateMutability": "view",
      "type": "function"
    },
    {
      "inputs": [],
      "name": "sellDAI",
      "outputs": [],
      "stateMutability": "nonpayable",
      "type": "function"
    },
    {
      "inputs": [
        {
          "internalType": "address",
          "name": "",
          "type": "address"
        }
      ],
      "name": "usdcBalances",
      "outputs": [
        {
          "internalType": "uint256",
          "name": "",
          "type": "uint256"
        }
      ],
      "stateMutability": "view",
      "type": "function"
    },
    {
      "inputs": [
        {
          "internalType": "address",
          "name": "_tokenAddress",
          "type": "address"
        }
      ],
      "name": "withdraw",
      "outputs": [],
      "stateMutability": "nonpayable",
      "type": "function"
    },
    {
      "stateMutability": "payable",
      "type": "receive"
    }
  ],
  "bytecode": "0x60c06040527368194a729c2450ad26072b3d33adacbcef39d57473ffffffffffffffffffffffffffffffffffffffff1660809073ffffffffffffffffffffffffffffffffffffffff1681525073da9d4f9b69ac6c22e444ed9af0cfc043b7a7f53f73ffffffffffffffffffffffffffffffffffffffff1660a09073ffffffffffffffffffffffffffffffffffffffff16815250605a60035560646004553480156100a857600080fd5b50336000806101000a81548173ffffffffffffffffffffffffffffffffffffffff021916908373ffffffffffffffffffffffffffffffffffffffff160217905550608051600160006101000a81548173ffffffffffffffffffffffffffffffffffffffff021916908373ffffffffffffffffffffffffffffffffffffffff16021790555060a051600260006101000a81548173ffffffffffffffffffffffffffffffffffffffff021916908373ffffffffffffffffffffffffffffffffffffffff16021790555060805160a051610fa461018e6000396000505060005050610fa46000f3fe60806040526004361061008a5760003560e01c80638da5cb5b116100595780638da5cb5b14610116578063a99c68c514610141578063ef0673421461017e578063f688bcfb146101bb578063f8b2cb4f146101e457610091565b806305abf9041461009657806315602991146100ad578063365833e1146100c457806351cff8d9146100ed57610091565b3661009157005b600080fd5b3480156100a257600080fd5b506100ab610221565b005b3480156100b957600080fd5b506100c2610332565b005b3480156100d057600080fd5b506100eb60048036038101906100e69190610aa8565b610443565b005b3480156100f957600080fd5b50610114600480360381019061010f9190610b33565b610625565b005b34801561012257600080fd5b5061012b6107b4565b6040516101389190610b81565b60405180910390f35b34801561014d57600080fd5b5061016860048036038101906101639190610b33565b6107d8565b6040516101759190610bab565b60405180910390f35b34801561018a57600080fd5b506101a560048036038101906101a09190610b33565b6107f0565b6040516101b29190610bab565b60405180910390f35b3480156101c757600080fd5b506101e260048036038101906101dd9190610aa8565b610808565b005b3480156101f057600080fd5b5061020b60048036038101906102069190610b33565b6109ea565b6040516102189190610bab565b60405180910390f35b600064e8d4a510006064600354600660003373ffffffffffffffffffffffffffffffffffffffff1673ffffffffffffffffffffffffffffffffffffffff168152602001908152602001600020546102789190610c24565b6102829190610c55565b61028c9190610c55565b9050600160009054906101000a900473ffffffffffffffffffffffffffffffffffffffff1673ffffffffffffffffffffffffffffffffffffffff1663a9059cbb33836040518363ffffffff1660e01b81526004016102eb929190610cbe565b6020604051808303816000875af115801561030a573d6000803e3d6000fd5b505050506040513d601f19601f8201168201806040525081019061032e9190610d1f565b5050565b600064e8d4a510006064600454600560003373ffffffffffffffffffffffffffffffffffffffff1673ffffffffffffffffffffffffffffffffffffffff168152602001908152602001600020546103899190610c55565b6103939190610c24565b61039d9190610c24565b9050600260009054906101000a900473ffffffffffffffffffffffffffffffffffffffff1673ffffffffffffffffffffffffffffffffffffffff1663a9059cbb33836040518363ffffffff1660e01b81526004016103fc929190610cbe565b6020604051808303816000875af115801561041b573d6000803e3d6000fd5b505050506040513d601f19601f8201168201806040525081019061043f9190610d1f565b5050565b80600560003373ffffffffffffffffffffffffffffffffffffffff1673ffffffffffffffffffffffffffffffffffffffff16815260200190815260200160002060008282546104929190610d4c565b925050819055506000600160009054906101000a900473ffffffffffffffffffffffffffffffffffffffff1673ffffffffffffffffffffffffffffffffffffffff1663dd62ed3e33306040518363ffffffff1660e01b81526004016104f8929190610da2565b602060405180830381865afa158015610515573d6000803e3d6000fd5b505050506040513d601f19601f820116820180604052508101906105399190610de0565b90508181101561057e576040517f08c379a000000000000000000000000000000000000000000000000000000000815260040161057590610e6a565b60405180910390fd5b600160009054906101000a900473ffffffffffffffffffffffffffffffffffffffff1673ffffffffffffffffffffffffffffffffffffffff166323b872dd3330856040518463ffffffff1660e01b81526004016105dd93929190610e8a565b6020604051808303816000875af11580156105fc573d6000803e3d6000fd5b505050506040513d601f19601f820116820180604052508101906106209190610d1f565b505050565b60008054906101000a900473ffffffffffffffffffffffffffffffffffffffff1673ffffffffffffffffffffffffffffffffffffffff163373ffffffffffffffffffffffffffffffffffffffff16146106b3576040517f08c379a00000000000000000000000000000000000000000000000000000000081526004016106aa90610f33565b60405180910390fd5b60008190508073ffffffffffffffffffffffffffffffffffffffff1663a9059cbb338373ffffffffffffffffffffffffffffffffffffffff166370a08231306040518263ffffffff1660e01b815260040161070e9190610f53565b602060405180830381865afa15801561072b573d6000803e3d6000fd5b505050506040513d601f19601f8201168201806040525081019061074f9190610de0565b6040518363ffffffff1660e01b815260040161076c929190610cbe565b6020604051808303816000875af115801561078b573d6000803e3d6000fd5b505050506040513d601f19601f820116820180604052508101906107af9190610d1f565b505050565b60008054906101000a900473ffffffffffffffffffffffffffffffffffffffff1681565b60066020528060005260406000206000915090505481565b60056020528060005260406000206000915090505481565b80600660003373ffffffffffffffffffffffffffffffffffffffff1673ffffffffffffffffffffffffffffffffffffffff16815260200190815260200160002060008282546108579190610d4c565b925050819055506000600260009054906101000a900473ffffffffffffffffffffffffffffffffffffffff1673ffffffffffffffffffffffffffffffffffffffff1663dd62ed3e33306040518363ffffffff1660e01b81526004016108bd929190610da2565b602060405180830381865afa1580156108da573d6000803e3d6000fd5b505050506040513d601f19601f820116820180604052508101906108fe9190610de0565b905081811015610943576040517f08c379a000000000000000000000000000000000000000000000000000000000815260040161093a90610e6a565b60405180910390fd5b600260009054906101000a900473ffffffffffffffffffffffffffffffffffffffff1673ffffffffffffffffffffffffffffffffffffffff166323b872dd3330856040518463ffffffff1660e01b81526004016109a293929190610e8a565b6020604051808303816000875af11580156109c1573d6000803e3d6000fd5b505050506040513d601f19601f820116820180604052508101906109e59190610d1f565b505050565b60008173ffffffffffffffffffffffffffffffffffffffff166370a08231306040518263ffffffff1660e01b8152600401610a259190610f53565b602060405180830381865afa158015610a42573d6000803e3d6000fd5b505050506040513d601f19601f82011682018060405250810190610a669190610de0565b9050919050565b600080fd5b6000819050919050565b610a8581610a72565b8114610a9057600080fd5b50565b600081359050610aa281610a7c565b92915050565b600060208284031215610abe57610abd610a6d565b5b6000610acc84828501610a93565b91505092915050565b600073ffffffffffffffffffffffffffffffffffffffff82169050919050565b6000610b0082610ad5565b9050919050565b610b1081610af5565b8114610b1b57600080fd5b50565b600081359050610b2d81610b07565b92915050565b600060208284031215610b4957610b48610a6d565b5b6000610b5784828501610b1e565b91505092915050565b6000610b6b82610ad5565b9050919050565b610b7b81610b60565b82525050565b6000602082019050610b966000830184610b72565b92915050565b610ba581610a72565b82525050565b6000602082019050610bc06000830184610b9c565b92915050565b7f4e487b7100000000000000000000000000000000000000000000000000000000600052601260045260246000fd5b7f4e487b7100000000000000000000000000000000000000000000000000000000600052601160045260246000fd5b6000610c2f82610a72565b9150610c3a83610a72565b925082610c4a57610c49610bc6565b5b828204905092915050565b6000610c6082610a72565b9150610c6b83610a72565b9250817fffffffffffffffffffffffffffffffffffffffffffffffffffffffffffffffff0483118215151615610ca457610ca3610bf5565b5b828202905092915050565b610cb881610af5565b82525050565b6000604082019050610cd36000830185610caf565b610ce06020830184610b9c565b9392505050565b60008115159050919050565b610cfc81610ce7565b8114610d0757600080fd5b50565b600081519050610d1981610cf3565b92915050565b600060208284031215610d3557610d34610a6d565b5b6000610d4384828501610d0a565b91505092915050565b6000610d5782610a72565b9150610d6283610a72565b9250827fffffffffffffffffffffffffffffffffffffffffffffffffffffffffffffffff03821115610d9757610d96610bf5565b5b828201905092915050565b6000604082019050610db76000830185610caf565b610dc46020830184610caf565b9392505050565b600081519050610dda81610a7c565b92915050565b600060208284031215610df657610df5610a6d565b5b6000610e0484828501610dcb565b91505092915050565b600082825260208201905092915050565b7f436865636b2074686520746f6b656e20616c6c6f77616e636500000000000000600082015250565b6000610e54601983610e0d565b9150610e5f82610e1e565b602082019050919050565b60006020820190508181036000830152610e8381610e47565b9050919050565b6000606082019050610e9f6000830186610caf565b610eac6020830185610caf565b610eb96040830184610b9c565b949350505050565b7f4f6e6c792074686520636f6e7472616374206f776e65722063616e2063616c6c60008201527f20746869732066756e6374696f6e000000000000000000000000000000000000602082015250565b6000610f1d602e83610e0d565b9150610f2882610ec1565b604082019050919050565b60006020820190508181036000830152610f4c81610f10565b9050919050565b6000602082019050610f686000830184610caf565b9291505056fea26469706673582212204e34163f3dd154858be32b37b05918a10a75f503391b2382312475e024be141564736f6c634300080a0033",
  "linkReferences": {},
  "deployedLinkReferences": {}
}